:020000040000FA
:0600000006EF14F01200EF
:0600080004EF08F01200F5
:060018000CEF08F01200DD
:0610000006EF14F01200DF
:061008004CEF0EF0120097
:061018004EEF0EF0120085
:06102A0001006E28000029
:081030009F0000001200000007
:08103800E0EC0CF06A6A686A42
:101040009F0E6B6EFB0E696E6D8C6D9C6E6ABBECB9
:101050000CF0DF6AEBEC0CF010E2DF50040DF3CF84
:10106000E9FFF4CFEAFF000EE926040EEA22EE6A59
:10107000EE6AEE6AEE6ADF2AEDD7160E706E68A68B
:1010800004D0030E85EC0CF0FAD70001736B786B7B
:10109000796B7A6B6D98080E6B6F040E6C6F616BD9
:1010A000606BE3EF0CF0E0EC0CF0000160510BE141
:1010B0006D6A696A6DB602D06D86FCD70001010EBB
:1010C000606F160E6F6E600508E16DBA06D0686A33
:1010D000696A69806988020E606F6850040B04E0D9
:1010E0006950040B01E063D86DB248D06850010B21
:1010F00011E06950010B0EE09FDF0001040E606FEC
:101100000401200E026F040E036F080E016F006BC6
:101110008C0E00136850100B04E06950100B01E0B6
:1011200040D86850400B07E06950400B04E06AEC7F
:1011300011F0060EEADB6850200B04E06950200B2A
:1011400001E01ED86850020B06E06950020B03E074
:101150006BEC11F06A6A040E0001605D0FE369A692
:101160000DD0DF6A040EDF5C09E268A607D06CCF01
:1011700080F0030ECADB25D8DF2AF4D7E3EF0CF0AA
:1011800070A00CD0E9DBEF50800807E1C8DBEF501E
:10119000840803E1E1DB8C0EEF6E7090050E85EFA5
:1011A0000CF06984040EB1DB6D8268EF11F06D9272
:1011B00069EC11F0699468A403D0020EA6DBFBD79A
:1011C0001200FD0E0001801519E17E0E8015E84029
:1011D0007F0B040DF3CF63F0F4CF64F0000E6327B0
:1011E000040E642363C065F064C066F0657554EC5A
:1011F0000DF002E104EF09F015EF09F0FD0E801586
:10120000040801E11AD812008ADBEF50800B02E0DB
:1012100086DBEF6A00016F6B706B746B756B736BC1
:1012200090D86CEC11F0CDEF0AF0020E0001705D69
:1012300002E157EF0BF049EF09F0C2DB70DBEF5032
:10124000400B01E0010EDF6E00016B75080E605D62
:1012500009E122C46EFF6E50000802E2100E01D0B8
:10126000040E606F700513E146EC0DF0CED9020E4E
:1012700000016F5D03E153DB840E07D0DF5003E113
:101280004EDBC80E02D04BDB880EEF6E01D001D8CA
:101290009AD341EC0DF0030EE126020E0001705DC1
:1012A00026E16D50100B23E057DBEE52EF50146E29
:1012B000156A080E14181BE1155019E154EC0DF0D5
:1012C00016E1C0DBEF50800B12E1BCDBCEDBDF6A46
:1012D00082DB22E2DF5087DBDF50EA6A200FE96E13
:1012E000040EEA22E552E750EF6EDF2AF1D7706B69
:1012F000C2DBEF6A040E6B19146E6CC015F0010EA0
:1013000014C0DBFF020E6CC0DBFF010EDBCFE9FF78
:10131000020EDBCFEAFFEF6A000178AF0CD07B5101
:101320007C1107E005D07CC0FAFF00017B51F96E0B
:10133000FADF0001789F030EE15C02E2E16AE55208
:10134000FCD204012051600BE842E842E842E84246
:10135000E842000901E0120021510C0A43E00B0AA7
:101360003FE00C0A31E0010A22E00B0A1EE0020A0B
:101370001CE0030A18E0080A10E0010A0CE00F0A5A
:1013800008E0030A01E012000001738F080E606F8D
:10139000120059EF0AF0B0EF0BF00001610E716F0F
:1013A000000E726F0CD094EF0AF0F3EF09F02451A5
:1013B0000001716F726B620E7127000E72237381D0
:1013C000010E746F738F12000001738F040124519A
:1013D000EA6A620FE96E000EEA2222C4EFFF1200F1
:1013E0006EEF11F012004DDB050EE126040122051F
:1013F00010E120511F0B00090CE10001738F030E57
:101400000401215D04E10001010E7F6F02D00001A3
:101410007F6B0401225147E120511F0B020843E179
:1014200024510F0B00093FE00001738F040EDB6AAB
:10143000020EF36E040EDBCFF4FFF350F45C33E2E4
:10144000FCDA040EDBCFE6FF04012451800B01E03F
:10145000010ED1DAE552E724A5DA030E215D03E19E
:1014600063DA840E1CD024510F0B156A700F146EB2
:101470000F0E1522020E14C0DBFF030E15C0DBFF9A
:10148000020EDBCFE9FF030EDBCFEAFFEE90ED5259
:1014900024AF03D049DA400E02D046DAC80EEF6E10
:1014A000040EDB2AC5D7050EE15C02E2E16AE552D3
:1014B00044D2800E0401205D36E10001C00E736F3E
:1014C00004012351030A1EE0010A09E0030A29E18D
:1014D0000001060E716F250E726F120E1FD0A2DA78
:1014E000C40EF626250E8FDA020E0001F76A71256A
:1014F000F66E7251F7220900F5CF74F00A00F5CFAD
:1015000075F012008FDAC60EF626250E7CDA71C051
:10151000F6FF72C0F7FF0800F5500001746F756B9D
:1015200012000001736B120004DA0401286B296BAE
:1015300020511F0B020A11E0030A0CE0010A1DE111
:101540000001738F0401288100017F0516E1040169
:10155000288313D00001738F10D00001738F6DDAD0
:1015600004012451800B01E0010E45DA1BDADCD9BD
:10157000EF50040B02E0010E286F000173AF07D09B
:10158000280E716F040E726F7381020E746F020E5B
:10159000E15C02E2E16AE552D0D16D98000173BFCF
:1015A00007D078AF02D09BDA28D065DA840E26D037
:1015B00078BF2AD0040120AF23D000017451040168
:1015C000265D000175510401275904E226C474F018
:1015D00027C475F01AD80001010E706F8FD9B6D9E3
:1015E000800EEF6EB9D9EE52080EEF6EB5D93DDA26
:1015F000B3D9800EEF6E4ADA92D9C80EEF6E1200A0
:1016000000016DDAC80EEF6E120093D90001080ECA
:10161000745D000E75590DE274C0DEFF75C0DDFF0C
:101620006F5102E1010E03D06F0506E1020E6F6FEC
:1016300003D0080EDE6EDD6A72D9EF9270D9EF909A
:101640006ED9010EDB50EF126AD9EE52DFCFEFFFF9
:10165000000EDB50745F010EDB50755B280E7D6F52
:10166000040E7E6F73B10FD0E4D91BE071C0F6FF9A
:1016700072C0F7FF712B000E72230800F55084D959
:10168000F3E2DB06F1D7D5D90CE071C0E9FF72C0F7
:10169000EAFF712B000E7223EF5076D9F4E2DB06DD
:1016A000F2D7020EE15C02E2E16AE55246D141D98D
:1016B00053D9EE52EFCFDFFFDFCF14F0145000010B
:1016C000795D000E7A5903E279C0DFFF09D0DF505F
:1016D000146E156AE850795D796F15507A597A6FF2
:1016E000010EDB6ADF50F36E010EDBCFF4FFF35027
:1016F000F45C10E2010EDB5076D976C0E9FF77C0CA
:10170000EAFF762B000E7723E552E750EF6E010ECD
:10171000DB2AE8D7000ED8807955000E7A550CE206
:10172000D2D91AD9EF50400B03E18CD9C80E02D0A0
:1017300089D9880EEF6E0ED085D997D97B517C114F
:1017400007E005D07CC0FAFF00017B51F96EFADF9B
:101750000001789F020EE15C02E2E16AE552EDD001
:101760000001738F08D9010EE66EE66AE66A620E22
:10177000E66E000EA0D922C461F00401225104E1FA
:101780000001100E606F12000001200E606F6FEFFD
:1017900011F0CFD852D9E5D8040DF350146E156A64
:1017A000020E0F0B05E0D89015321432E806FBE16B
:1017B000D89014361536D8901436153687D914506B
:1017C000EE261550ED22B0D8EF9EFD0EDB5002E163
:1017D00061D901D064D9EA22DECFEEFFDDCFEDFF83
:1017E000A3D8EF9CA1D8040EE926000EEA22EF8CC4
:1017F000020EE15C02E2E16AE5529FD09AD8FE0E49
:10180000DB50156A700F146E0F0EDFD8FD0EDB5023
:10181000E66E8AD8E552E750EE6EED6AFD0EDBA467
:1018200002D0E66AF8D8FD0EDBA203D0010EE66E08
:10183000F2D8020EE15C02E2E16AE5527ED079D88C
:10184000FE0EDB5004E117D9840EEF6E05D089D867
:10185000FED887D8010FFBD8020EE15C02E2E16AF4
:10186000E5526BD066D8FD0EDB5002E018D901D0EE
:1018700011D9EA22EECFDEFFEDCFDDFF55D83AD900
:10188000FB0EDBCFEEFFFC0EDBCFEDFF4DD8EE52B3
:10189000FA0EDBCFEFFF400E47D8E850EF16880E68
:1018A00043D8E850EF12FD0EDB5002E0F8D801D02B
:1018B000F1D8EA22EF74DECF14F0DDCF15F014C0BA
:1018C000F3FF15C0F4FF020EE15C02E2E16AE552AB
:1018D00034D0D7D8010EF36EFC0EDB5004E0D89064
:1018E000F336E806FCE1F31C146EFD0EDBCFE9FFD6
:1018F000FE0EDBCFEAFF1450EF16EDD0A3D8EE5268
:10190000080EEF6E9FD87AEF0DF0E66E680EE66E69
:101910000F0EE66EDEDFE552E552E55212006BC0B7
:10192000E9FF6CC0EAFF1200DECFE9FFDDCFEAFF7E
:101930001200A7D8020EE1261200E16ECCD0FE0EF6
:10194000EA6ADB34FE0BEA36E96E1200200EEE6E18
:10195000040EED6E22EF0DF063C0E9FF64C0EAFFF4
:101960001200FD0EDB50E824166EFE0EDB50040D57
:10197000F35016241200000EE66EE66AE66A710E57
:10198000E66E0F0E5BEF0DF0E66E7DC0E9FF7EC0E8
:10199000EAFF7D2B000E7E23E552E750EF6EDF0657
:1019A000010E1200040DF4CF15F090D8F350EE267E
:1019B0001550ED221200280EEE6E040EED6E120090
:1019C00060D8E6521200E55286D0152214C0DEFF20
:1019D00015C0DDFF1200DF50146E156A080E145C8E
:1019E000000E15581200EA6A280FE96E040EEA226A
:1019F000EF50E66E1200E824166E24510F0B040D12
:101A0000F35016241200F7220900F5CF71F00A00F6
:101A1000F5CF72F01200FE0EDBCFE6FFBADEE55224
:101A2000E55212002251F66EF76AD890F636F73674
:101A300012004CD8EE50ED101200000EDE6E040EB7
:101A4000DD6E120065C0E9FF66C0EAFF1200040DFA
:101A5000F3CF14F0F4CF15F0000E1426040EB5DF0A
:101A6000840E62DFE850EF12120044D8200EEE6EB2
:101A7000040EED6E120042DF69DF8C0EEF6E8FEF09
:101A80000CF0D9CFE6FFE1CFD9FF120048DF32D802
:101A9000DBEF0CF054DF670EE926000E12004FDF7B
:101AA0006B0EE926000E120057DFEF503C0BE842A8
:101AB000E8420D081200E66EBFEC13F0146E050E3E
:101AC000E15E145012001ADFDBEF0CF0D9CFE9FF12
:101AD000DACFEAFF1200E552E7CFD9FF1200020E7B
:101AE000706F1DDFEE52EF6A1ADFC80EEF6EEBDF8C
:0E1AF00022EF0DF0020EE926000EEA2212008F
:021AFE00AEEC4C
:101B000011F0E652870EE66E040EE66EAF0EE66E3C
:101B100088EC13F00EEC12F0DF6ADF50146E156AD9
:101B2000D890155004E6FF0E145C000E155802E222
:101B3000DF2AF3D7E552B3EF11F0AEEC11F0FE0E51
:101B4000DB500D0803E2F36AF46A15D0FE0EDB5099
:101B5000080DF3508709E66ED9EC13F0E552E668FC
:101B600014EC14F0E55234EC14F02FEC14F00009EE
:101B7000FCE11FEC14F0B3EF11F0D9CFE6FFB3EFA7
:101B800011F0ECDBFB0EDBCFE6FFFC0EDBCFE6FF5C
:101B9000B7EC11F008D80EEC12F0E552E8DB21D8D2
:101BA000E552E552E0D3DADBFB0EDB500CE0DAEC79
:101BB00011F004E0D890F336E806FCE1F350A7DB1F
:101BC000F350EF120DD0DAEC11F004E0D890F336B8
:101BD000E806FCE1F350F31C146E99DB1450EF1689
:101BE000C2D3F6EC11F018E0010A12E0070A0CE08B
:101BF000010A06E0030A13E112EC12F0896E0FD01D
:101C000012EC12F08A6E0BD012EC12F08B6E07D031
:101C100012EC12F08C6E03D012EC12F08D6EA3D386
:101C20009DDBA5DB1BD8E552E552FC0EDBCFE6FFC2
:101C30009EDB03D80EEC12F096D390DB68DBEECF80
:101C400014F0B8DB04E0D890F336E806FCE1F3507A
:101C5000141402E0010E01D0000E85D3C7DB18E09A
:101C6000010A12E0070A0CE0010A06E0030A13E188
:101C70004EDB80CFEFFF0FD04ADB81CFEFFF0BD0E1
:101C800046DB82CFEFFF07D042DB83CFEFFF03D0ED
:101C90003EDB84CFEFFF67D37FDB1100D8CFE4FFBB
:101CA000E0CFE4FFE46E78DBE550E5CFE0FFE5CF81
:101CB000D8FF10000001BC0EA56F020EA66F946A3B
:101CC0009280929492969298929A949294949590EB
:101CD0009592959495969598959A938093829384EE
:101CE00093869388938A120039DB040EE126DE681E
:101CF000DD68870EE66ED9EC13F0E55282D9DADFA3
:101D000053EC08F034EC14F02FEC14F0000903E06D
:101D100053EC08F0F9D7C350186E196AC4501A6E04
:101D20001B6A086A010E096E1AC00DF01BC00EF086
:101D30000CEC13F018500624166E19500720176E7D
:101D4000DE50165C146EDD501758156ED890E850B2
:101D500004E6320E145C000E15582CE3C350206EBE
:101D6000216AC450226E236A086A010E096E22C0DD
:101D70000DF023C00EF00CEC13F0205006241E6E64
:101D8000215007201F6EDE501E5C1C6EDD501F5858
:101D90001D6EE8340FE31C50CE08FF0E1D540AE3FD
:101DA000D9CFE9FFDACFEAFFFF0EEE181BE1FF0EF5
:101DB000ED1818E1C350166E176AC450186E196AF0
:101DC000086A010E096E18C00DF019C00EF00CEC77
:101DD00013F016500624146E17500720156E14C009
:101DE000DEFFDD6E640E0001A95D01E1A96BDE502E
:101DF000A55D146EDD50A659156E040E0D6E0E6AAB
:101E000014C008F015C009F0E6EC12F008C014F098
:101E100009C015F0020E08C0DBFF030E09C0DBFF8E
:101E2000B3DAE8AE02D0153404D01450A55D1550D5
:101E3000A65910E208680968020EDBCF0DF0030E08
:101E4000DBCF0EF00CEC13F0020E06C0DBFF030E2E
:101E500007C0DBFFB9DA14BE1568020EDBCF16F03F
:101E6000030EDBCF17F015501718E8AE02D0173469
:101E700001D0A5DA31E21E0E0001E76EA919E8AE25
:101E800002D0E73402D0E750A95D26E2AE0524E196
:101E9000DECF14F0DDCF15F01550A619E8AE02D054
:101EA000A63504D0A551145CA651155802E3000EC6
:101EB00001D0010EE66E020E8BDA66DAE8AE02D0D1
:101EC000153404D01450A55D1550A65902E3000E38
:101ED00001D0010EE66E04D0E66A020E79DAE66AF7
:101EE000030E76DA53EC08F00001AD351BE2AC517D
:101EF0000008000EAD5516E267DA14BE15681550DD
:101F0000AD19E8AE02D0AD3504D0AC51145CAD5182
:101F1000155806E2E66A040E62DA010EE66E17D084
:101F2000E66A12D051DA14BE1568ACC016F0ADC026
:101F300017F039DAE8AE02D0173401D040DA03E204
:101F4000010EE66E01D0E66A040E49DAE66A020E78
:101F500053DA53EC08F00001AB351BE2AA5100083C
:101F6000000EAB5516E230DA14BE15681550AB19E9
:101F7000E8AE02D0AB3504D0AA51145CAB51155871
:101F800006E2E66A050E2BDA010EE66E18D0E66A66
:101F900012D01ADA14BE1568AAC016F0ABC017F03A
:101FA00002DAE8AE02D0173401D009DA03E2010EFA
:101FB000E66E01D0E66A050E12DAE66A010E1CDA58
:101FC0000001A92BA75105E0050EE66EABD900096B
:101FD00002E0000E01D0010EE66E040EF9D90001F8
:101FE000A85105E0020EE66E9DD9000902E0000E40
:101FF00001D0010EE66E050EEBD953EC08F058D86F
:102000007FD60001890E936F000E946F8B0E956F33
:10201000000E966F8D0E976F000E986F8F0E996F52
:10202000000E9A6F910E9B6F000E9C6F93C0E9FF9C
:1020300094C0EAFFEE52010EEF6E95C0E9FF96C024
:10204000EAFFEE52020EEF6E97C0E9FF98C0EAFF7A
:10205000EE52030EEF6E99C0E9FF9AC0EAFFEE520E
:10206000040EEF6E9BC0E9FF9CC0EAFFEE52050E26
:10207000EF6E45DD0F0EC1121CEC08F040EF10F0C2
:10208000F00E8C1695169388938A8150100B01E000
:10209000010E0001856F8150200B01E0010E866F5B
:1020A0000001A06BA16BA26BA36B010EA46F1200C9
:1020B000200E0001605D01E2ABD06D50020B01E02B
:1020C00012000001A051A11102E1000E08D0A0C031
:1020D000E9FFA1C0EAFFEF50800B01E0010E00090B
:1020E00001E096D0A46B04013651910A73E0010A15
:1020F00067E0190A5CE0010A52E00E0A47E0030AB1
:102100003CE0020A37E0030A32E0070A11E0010A64
:1021100001E07DD0820E766FC3CF77F4C4CF78F420
:10212000796B0001A251A3115FE011D962E050D098
:102130003751050DF3CFA5F0F4CFA6F00001F4342C
:102140000AE2A551B608030EA65505E2B60EA56F24
:10215000030EA66F5CD0D880A65104E7C20EA55D21
:10216000FF0EA65954E2C20EA56FA66950D037C41F
:10217000A7F04DD037C4A8F04AD037510001AA6F5C
:10218000AB6B640EAA5F000EAB5B41D03751000110
:10219000AC6FAD6B640EAC5F000EAD5B38D0880EDB
:1021A000766FE66A38D920E0D2D823E011D0890EC4
:1021B000766F020EE66E2FD917E0C9D81AE008D064
:1021C000900E766F030EE66E26D90EE0C0D811E0B1
:1021D000010E0FD037C4AEF0910E766F37C477F48E
:1021E0000001A251A31102E1000E03D0B0D801E01A
:1021F000010E0009400EE66E760EE66E040EE66EE7
:10220000010EE66E00D9F3CFA2F0F4CFA3F091D87F
:1022100012008150100B01E0010E0001855D07E006
:102220008150100B01E0010E856F81A8010C000C9C
:102230008150200B01E0010E0001865D07E0815016
:10224000200B01E0010E866F81AA010C000C000139
:10225000AF51B01104E1100EAF6F270EB06FAF0792
:10226000000EB05B6DA208D0AF51B01130E18C70A0
:102270008C50010B13E128D00001605102E18C90D9
:1022800023D0600502E18C8009D0020E605D02E17E
:102290008C801AD0040E605D03E18C908C82120059
:1022A000100E605D06E10001AF51B01110E18C70BD
:1022B0000BD0200E605D0BE10001AF51B01107E1C2
:1022C0008C708C50010B02E08C9212008C821200F8
:1022D000120012001200120015EF12F012001E0E72
:1022E000E66E010EE66EFEEC0BF0E552E55299EF5C
:1022F00011F06D840001080E9D6F070E9E6F9D0703
:10230000000E9E5B9D519E11FAE16D941200FD0E30
:10231000DBCFE9FFFE0EDBCFEAFF120032DC7ED816
:10232000E552120095C0E6FF96C0E6FF79DC0EEF9D
:1023300012F0400EE66E360EE66E040EE66EE66AAB
:10234000010E61D8F3CFA0F0F4CFA1F01200A2C02B
:10235000E9FFA3C0EAFFEF50800B1200D9CFE6FFE0
:10236000E1CFD9FF1200E552E7CFD9FF1200FD0EF1
:10237000DBCFE6FFFE0EDBCFE6FF12000401776F36
:102380000001A251A3111200DECF14F0DDCF15F031
:102390000001A65115181200DACFE4FFE652E5520B
:1023A000E5CFDAFF1200166C171E000E172215502B
:1023B00017181200010EF36EFC0EDB5012001650BF
:1023C000145C175015581200A9C014F0156A1200B9
:1023D000E66E93C0E6FF94C0E6FF8EEF11F0E66E66
:1023E00099C0E6FF9AC0E6FF8EEF11F0B7DF8FDFEE
:1023F000EE52EF50050A1200E66E97C0E6FF98C055
:10240000E6FF8EEF11F0E66E32EC0CF0146E050E66
:10241000E15E1450120086DFBEEF11F0E552E55286
:0A242000E552120074DFEF501200C5
:06242A00040120511F0B0C
:10243000010801E01200245101E01200060E215DA6
:1024400021E12351230A1BE0010A0CE0030A1AE1EF
:102450000001610517E100012A0E716F250E726FF0
:10246000090E09D0000161050DE10001A70E716F91
:10247000250E726F1D0E746F756BC00E02D00001B9
:10248000800E736F04012051600BE842E842E8427D
:10249000E842E842010801E0120021510B0A2AE05B
:1024A000080A1DE0090A15E0080A09E00B0A05E020
:1024B000080A01E0120080EF12F081EF12F0000133
:1024C000BB0E716F000E726F010E746F756BC10ED3
:1024D0000FD00001800E736F23C4BBF01200000107
:1024E000BC0E716F000E726F010E746F756B810EF2
:1024F000736F12000001800E736F22C4BCF01200D3
:062500001200120012009F
:0A2506001201000200000008D804D2
:102510003F0002000102000109022900010100C080
:10252000320904000002030000000921110100012A
:10253000221D00070581034000010705010340003B
:10254000010403090434034D006900630072006F45
:10255000006300680069007000200054006500639B
:102560000068006E006F006C006F0067007900204B
:102570000049006E0063002E002E03530069006DB9
:102580000070006C006500200048004900440020F5
:102590000044006500760069006300650020004487
:1025A0000065006D006F000600FF0901A10119011F
:1025B0002940150026FF0075089540810219012960
:0C25C000409102C01825412545257925D1
:0425CC00006A0EAEE5
:1025D000EFEF12F00D6C0E1EE86A0E22001E09AE1F
:1025E000F7EF12F0086C091EE86A0922001EF0ECF1
:1025F00013F009BE07EF13F000AE000C086C091EC3
:10260000E86A0922046C051EE86A0522000C00BE77
:10261000FEEF12F00188FF0C09C013F008C012F0A1
:1026200008500D02F4CF07F0F3CF06F009500E0268
:10263000F4CF09F0F3CF08F00D02F3500726F45061
:102640000822E86A092212500E02F3500726F450BD
:102650000822E86A09220EAE32EF13F01250085E2B
:102660001350095A13AE000C0D50085E0E50095A53
:02267000000C5C
:0E2672002A0EF66E100EF76E000EF86E0001C6
:102680000900F550B66F0900F550B76F03E1B66762
:1026900001D03DD00900F550B16F0900F550B26F7F
:1026A0000900F550B36F09000900F550E96E090003
:1026B000F550EA6E090009000900F550B46F0900F1
:1026C000F550B56F09000900F6CFB8F0F7CFB9F0B3
:1026D000F8CFBAF0B1C0F6FFB2C0F7FFB3C0F8FF51
:1026E0000001B45302E1B55307E00900F550EE6E66
:1026F000B407F8E2B507F9D7B8C0F6FFB9C0F7FFDD
:10270000BAC0F8FF0001B607000EB75BBFD71200D2
:10271000D9CFE6FFDACFE6FFE1CFD9FFE2CFDAFF8C
:10272000C26AC06AFC0EDB407F0B3C0BC26EFB0E24
:10273000DBCFE6FFFC0EDB38F00B300BE552E71089
:10274000C16EFD0EDB50040DF350380B156EFD0EFF
:10275000DB380F0B070B146EFD0EDB50800B1410D3
:102760001510C06EFC0EDBAE03D09E9C9D8CF28CCF
:0E277000C280E552E5CFDAFFE7CFD9FF1200B5
:02277E00FE0E4D
:10278000E3CFE9FFFF0EE3CFEAFFE9CFF3FFEACFA4
:10279000F4FFFB0EE35003E1FC0EE35009E0FB0EF7
:1027A000E30602E2FC0EE306FD0EE350EE6EF1D707
:0227B000120015
:0E27B200D9CFE6FFDACFE6FFE1CFD9FFE2CFC5
:1027C000DAFFC30EC214146EFD0EDB407F0B3C0B10
:1027D0001410C26EE552E5CFDAFFE7CFD9FF120041
:1027E000056A046A100EE76ED8900836093604367A
:1027F00005360D50045C0E50055805E30D50045E7F
:0C2800000E50055A082AE72EF0D71200EF
:04280C0013EE00F0D7
:1028100023EE00F0F86A019C39EC13F036EC14F06A
:0828200074EC0EF0FBD712006E
:08282800FF0EE350E84E120020
:0E283000000000D000D000D0E82EFAD7120031
:02283E00C45084
:10284000176E166AC3501610F36E17C0F4FF12000D
:0E28500000EE00F00F0EEE6AEA62FDD71200F5
:02285E00C25066
:08286000020B01E0010E120061
:04286800C282120016
:02286C00120058
:02286E00000068
:1028700000000001BC020000000000000000000099
:020000040030CA
:0100000024DB
:010001000EF0
:010002003FBE
:010003001EDE
:010005008179
:010006008178
:010008000FE8
:01000900C036
:01000A000FE6
:01000B00E014
:01000C000FE4
:01000D0040B2
:00000001FF
